{
  "_format": "hh-sol-artifact-1",
  "contractName": "Store",
  "sourceName": "contracts/Store.sol",
  "abi": [
    {
      "inputs": [
        {
          "internalType": "uint256",
          "name": "product_id",
          "type": "uint256"
        },
        {
          "internalType": "uint256",
          "name": "rating",
          "type": "uint256"
        },
        {
          "internalType": "string",
          "name": "review",
          "type": "string"
        }
      ],
      "name": "addRating",
      "outputs": [],
      "stateMutability": "nonpayable",
      "type": "function"
    },
    {
      "inputs": [
        {
          "internalType": "uint256",
          "name": "product_id",
          "type": "uint256"
        },
        {
          "internalType": "address payable",
          "name": "buyer_id",
          "type": "address"
        }
      ],
      "name": "approvePurchase",
      "outputs": [],
      "stateMutability": "nonpayable",
      "type": "function"
    },
    {
      "inputs": [
        {
          "internalType": "uint256",
          "name": "product_id",
          "type": "uint256"
        }
      ],
      "name": "approveReceipt",
      "outputs": [],
      "stateMutability": "nonpayable",
      "type": "function"
    },
    {
      "inputs": [
        {
          "internalType": "uint256",
          "name": "product_id",
          "type": "uint256"
        }
      ],
      "name": "buyProduct",
      "outputs": [],
      "stateMutability": "payable",
      "type": "function"
    },
    {
      "inputs": [
        {
          "internalType": "string",
          "name": "name",
          "type": "string"
        },
        {
          "internalType": "string",
          "name": "description",
          "type": "string"
        },
        {
          "internalType": "uint256",
          "name": "price",
          "type": "uint256"
        },
        {
          "internalType": "uint256",
          "name": "amt",
          "type": "uint256"
        }
      ],
      "name": "createProduct",
      "outputs": [],
      "stateMutability": "payable",
      "type": "function"
    },
    {
      "inputs": [],
      "name": "numProducts",
      "outputs": [
        {
          "internalType": "uint256",
          "name": "",
          "type": "uint256"
        }
      ],
      "stateMutability": "view",
      "type": "function"
    },
    {
      "inputs": [
        {
          "internalType": "uint256",
          "name": "product_id",
          "type": "uint256"
        }
      ],
      "name": "observeBuyers",
      "outputs": [
        {
          "internalType": "address[]",
          "name": "",
          "type": "address[]"
        }
      ],
      "stateMutability": "view",
      "type": "function"
    },
    {
      "inputs": [
        {
          "internalType": "uint256",
          "name": "",
          "type": "uint256"
        }
      ],
      "name": "products",
      "outputs": [
        {
          "internalType": "string",
          "name": "name",
          "type": "string"
        },
        {
          "internalType": "string",
          "name": "description",
          "type": "string"
        },
        {
          "internalType": "uint256",
          "name": "init_amt",
          "type": "uint256"
        },
        {
          "internalType": "uint256",
          "name": "amt",
          "type": "uint256"
        },
        {
          "internalType": "uint256",
          "name": "price",
          "type": "uint256"
        },
        {
          "internalType": "uint256",
          "name": "value_escrow",
          "type": "uint256"
        },
        {
          "internalType": "bool",
          "name": "cancelled",
          "type": "bool"
        },
        {
          "internalType": "uint256",
          "name": "deposit_fund",
          "type": "uint256"
        },
        {
          "internalType": "address",
          "name": "seller",
          "type": "address"
        },
        {
          "internalType": "uint256",
          "name": "rating",
          "type": "uint256"
        },
        {
          "internalType": "uint256",
          "name": "tot_ratings",
          "type": "uint256"
        }
      ],
      "stateMutability": "view",
      "type": "function"
    },
    {
      "inputs": [
        {
          "internalType": "uint256",
          "name": "product_id",
          "type": "uint256"
        },
        {
          "internalType": "address payable",
          "name": "buyer_id",
          "type": "address"
        }
      ],
      "name": "rejectPurchase",
      "outputs": [],
      "stateMutability": "nonpayable",
      "type": "function"
    },
    {
      "inputs": [
        {
          "internalType": "uint256",
          "name": "product_id",
          "type": "uint256"
        }
      ],
      "name": "rejectReceipt",
      "outputs": [],
      "stateMutability": "nonpayable",
      "type": "function"
    },
    {
      "inputs": [
        {
          "internalType": "uint256",
          "name": "product_id",
          "type": "uint256"
        }
      ],
      "name": "stopProduct",
      "outputs": [],
      "stateMutability": "nonpayable",
      "type": "function"
    }
  ],
  "bytecode": "0x608060405234801561001057600080fd5b5061183a806100206000396000f3fe60806040526004361061009c5760003560e01c806390d16cba1161006457806390d16cba14610156578063a8d5d1a614610169578063ac964f2114610189578063b292a9b2146101ad578063d8bf1f1d146101cd578063ef97a776146101fa57600080fd5b80631e8ac00d146100a157806322ffd37f146100c357806351294817146100e35780637acc0b20146101035780638642269e14610143575b600080fd5b3480156100ad57600080fd5b506100c16100bc3660046114b9565b61021a565b005b3480156100cf57600080fd5b506100c16100de3660046114a0565b6103c2565b3480156100ef57600080fd5b506100c16100fe3660046114f5565b6105e0565b34801561010f57600080fd5b5061012361011e3660046114a0565b6107c9565b60405161013a9b9a999897969594939291906115f2565b60405180910390f35b6100c16101513660046114a0565b61093d565b6100c1610164366004611422565b610c2b565b34801561017557600080fd5b506100c16101843660046114a0565b610d5a565b34801561019557600080fd5b5061019f60005481565b60405190815260200161013a565b3480156101b957600080fd5b506100c16101c83660046114a0565b610e76565b3480156101d957600080fd5b506101ed6101e83660046114a0565b611048565b60405161013a91906115a5565b34801561020657600080fd5b506100c16102153660046114b9565b611131565b6000828152600160205260409020600d8101546001600160a01b0316331461029a5760405162461bcd60e51b815260206004820152602860248201527f4f6e6c79207468652073656c6c65722063616e2072656a6563742074686520706044820152673ab931b430b9b29760c11b60648201526084015b60405180910390fd5b6001600160a01b0382166000908152600b8201602052604090205460ff16156102d55760405162461bcd60e51b8152600401610291906116b7565b6001600160a01b0382166000908152600a8201602052604090205460ff16156103105760405162461bcd60e51b81526004016102919061166b565b60058101546040516001600160a01b0384169180156108fc02916000818181858888f19350505050158015610349573d6000803e3d6000fd5b5060038101805490600061035c836117bd565b919050555080600501548160070160008282546103799190611754565b90915550506001600160a01b039091166000908152600b820160209081526040808320805460ff1990811660019081179092556009909501909252909120805490921617905550565b6000818152600160209081526040808320338452600981019092529091205460ff166104435760405162461bcd60e51b815260206004820152602a60248201527f5468652073656c6c657220686173206e6f7420636f6e6669726d65642074686560448201526910383ab931b430b9b29760b11b6064820152608401610291565b336000908152600a8201602052604090205460ff16156104755760405162461bcd60e51b81526004016102919061166b565b336000908152600b8201602052604090205460ff16156104a75760405162461bcd60e51b8152600401610291906116b7565b6004810154604051339180156108fc02916000818181858888f193505050501580156104d7573d6000803e3d6000fd5b50600d81015460048201546040516001600160a01b039092169181156108fc0291906000818181858888f19350505050158015610518573d6000803e3d6000fd5b5080600501548160070160008282546105319190611754565b9091555050336000908152600a820160205260409020805460ff1916600117905560038101541580156105695750600681015460ff16155b156105dc57600d81015460048201546040516001600160a01b039092169181156108fc0291906000818181858888f193505050501580156105ae573d6000803e3d6000fd5b5080600401548160070160008282546105c79190611754565b909155505060068101805460ff191660011790555b5050565b6000848152600160205260409020600d8101546001600160a01b031633141561064b5760405162461bcd60e51b815260206004820152601f60248201527f5468652073656c6c65722063616e6e6f7420616464206120726174696e672e006044820152606401610291565b33600090815260098201602052604090205460ff166106ba5760405162461bcd60e51b815260206004820152602560248201527f596f7520646964206e6f7420627579207468652070726f6475637420746f2072604482015264657669657760d81b6064820152608401610291565b60058411156107175760405162461bcd60e51b8152602060048201526024808201527f54686520726174696e672073686f756c64206265206265747765656e203020616044820152636e64203560e01b6064820152608401610291565b600f81018054906000610729836117bd565b90915550506010810180546001810182556000918252602090912061075091018484611340565b5083816011018484604051610766929190611595565b90815260405190819003602001902055600f81015484610787600183611754565b83600e01546107969190611735565b6107a091906116fb565b6107aa9190611713565b81600e0160008282546107bd91906116fb565b90915550505050505050565b6001602052600090815260409020805481906107e490611782565b80601f016020809104026020016040519081016040528092919081815260200182805461081090611782565b801561085d5780601f106108325761010080835404028352916020019161085d565b820191906000526020600020905b81548152906001019060200180831161084057829003601f168201915b50505050509080600101805461087290611782565b80601f016020809104026020016040519081016040528092919081815260200182805461089e90611782565b80156108eb5780601f106108c0576101008083540402835291602001916108eb565b820191906000526020600020905b8154815290600101906020018083116108ce57829003601f168201915b505050600284015460038501546004860154600587015460068801546007890154600d8a0154600e8b0154600f909b0154999a9699959850939650919460ff9091169391926001600160a01b0316918b565b6000818152600160205260409020600581015433311161099f5760405162461bcd60e51b815260206004820152601960248201527f4e6f7420656e6f7567682062616c616e636520746f20627579000000000000006044820152606401610291565b80600501543414610a095760405162461bcd60e51b815260206004820152602e60248201527f56616c7565206d75737420626520657175616c20746f207468652076616c756560448201526d206f662074686520657363726f7760901b6064820152608401610291565b6000816003015411610a5d5760405162461bcd60e51b815260206004820152601760248201527f50726f64756374206973206f7574206f662073746f636b0000000000000000006044820152606401610291565b336000908152600b8201602052604090205460ff1615610abf5760405162461bcd60e51b815260206004820152601f60248201527f42757965722068617320616c7265616479206265656e2072656a6563746564006044820152606401610291565b336000908152600a8201602052604090205460ff1615610b2d5760405162461bcd60e51b8152602060048201526024808201527f42757965722068617320616c726561647920626f75676874207468652070726f604482015263191d58dd60e21b6064820152608401610291565b33600090815260088201602052604090205460ff1615610ba25760405162461bcd60e51b815260206004820152602a60248201527f42757965722063616e206f6e6c7920627579206f6e65206974656d206f6620746044820152691a19481c1c9bd91d58dd60b21b6064820152608401610291565b34816007016000828254610bb691906116fb565b90915550503360009081526008820160209081526040808320805460ff199081166001179091556009850190925282208054909116905560038201805491610bfd8361176b565b9091555050600c018054600181018255600091825260209091200180546001600160a01b0319163317905550565b33318210610c7b5760405162461bcd60e51b815260206004820152601a60248201527f4e6f7420656e6f7567682062616c616e636520746f2073656c6c0000000000006044820152606401610291565b813414610cca5760405162461bcd60e51b815260206004820152601c60248201527f56616c7565206d75737420626520657175616c20746f207072696365000000006044820152606401610291565b6000805490819080610cdb836117bd565b90915550506000818152600160205260409020610cf9818989611340565b50610d08600182018787611340565b5060048101849055610d1b846002611735565b6005820155600781019390935550600382018190556002820155600d810180546001600160a01b03191633179055600601805460ff1916905550505050565b6000818152600160209081526040808320338452600a81019092529091205460ff1615610d995760405162461bcd60e51b81526004016102919061166b565b336000908152600b8201602052604090205460ff1615610dcb5760405162461bcd60e51b8152600401610291906116b7565b6005810154604051339180156108fc02916000818181858888f19350505050158015610dfb573d6000803e3d6000fd5b508060050154816007016000828254610e149190611754565b9091555050336000908152600b8201602090815260408083208054600160ff19918216811790925560098601909352922080549091169091179055600681015460ff166105dc57600381018054906000610e6d836117bd565b91905055505050565b6000818152600160205260409020600d8101546001600160a01b03163314610eef5760405162461bcd60e51b815260206004820152602660248201527f4f6e6c79207468652073656c6c65722063616e2073746f70207468652070757260448201526531b430b9b29760d11b6064820152608401610291565b60068101805460ff191660011790556000600382018190555b600c820154811015610fe55781600901600083600c018381548110610f2f57610f2f6117ee565b60009182526020808320909101546001600160a01b0316835282019290925260400190205460ff16610fd35781600c018181548110610f7057610f706117ee565b600091825260208220015460058401546040516001600160a01b039092169281156108fc029290818181858888f19350505050158015610fb4573d6000803e3d6000fd5b508160050154826007016000828254610fcd9190611754565b90915550505b80610fdd816117bd565b915050610f08565b50600d81015460048201546040516001600160a01b039092169181156108fc0291906000818181858888f19350505050158015611026573d6000803e3d6000fd5b50806004015481600701600082825461103f9190611754565b90915550505050565b6000818152600160205260409020600d810154606091906001600160a01b031633146110cc5760405162461bcd60e51b815260206004820152602d60248201527f5468652063616c6c6572206d757374206265207468652073656c6c6572206f6660448201526c103a343290383937b23ab1ba1760991b6064820152608401610291565b80600c0180548060200260200160405190810160405280929190818152602001828054801561112457602002820191906000526020600020905b81546001600160a01b03168152600190910190602001808311611106575b5050505050915050919050565b6000828152600160205260409020600d8101546001600160a01b031633146111ad5760405162461bcd60e51b815260206004820152602960248201527f4f6e6c79207468652073656c6c65722063616e20617070726f76652074686520604482015268383ab931b430b9b29760b91b6064820152608401610291565b6001600160a01b0382166000908152600b8201602052604090205460ff16156111e85760405162461bcd60e51b8152600401610291906116b7565b6001600160a01b0382166000908152600a8201602052604090205460ff16156112235760405162461bcd60e51b81526004016102919061166b565b6001600160a01b038216600090815260088201602052604090205460ff1661129f5760405162461bcd60e51b815260206004820152602960248201527f54686520627579657220686173206e6f7420737461727465642074686520747260448201526830b739b0b1ba34b7b760b91b6064820152608401610291565b6001600160a01b038216600090815260098201602052604090205460ff16156113165760405162461bcd60e51b815260206004820152602360248201527f5468652062757965722068617320616c7265616479206265656e20617070726f6044820152621d995960ea1b6064820152608401610291565b6001600160a01b039091166000908152600990910160205260409020805460ff1916600117905550565b82805461134c90611782565b90600052602060002090601f01602090048101928261136e57600085556113b4565b82601f106113875782800160ff198235161785556113b4565b828001600101855582156113b4579182015b828111156113b4578235825591602001919060010190611399565b506113c09291506113c4565b5090565b5b808211156113c057600081556001016113c5565b60008083601f8401126113eb57600080fd5b50813567ffffffffffffffff81111561140357600080fd5b60208301915083602082850101111561141b57600080fd5b9250929050565b6000806000806000806080878903121561143b57600080fd5b863567ffffffffffffffff8082111561145357600080fd5b61145f8a838b016113d9565b9098509650602089013591508082111561147857600080fd5b5061148589828a016113d9565b979a9699509760408101359660609091013595509350505050565b6000602082840312156114b257600080fd5b5035919050565b600080604083850312156114cc57600080fd5b8235915060208301356001600160a01b03811681146114ea57600080fd5b809150509250929050565b6000806000806060858703121561150b57600080fd5b8435935060208501359250604085013567ffffffffffffffff81111561153057600080fd5b61153c878288016113d9565b95989497509550505050565b6000815180845260005b8181101561156e57602081850181015186830182015201611552565b81811115611580576000602083870101525b50601f01601f19169290920160200192915050565b8183823760009101908152919050565b6020808252825182820181905260009190848201906040850190845b818110156115e65783516001600160a01b0316835292840192918401916001016115c1565b50909695505050505050565b60006101608083526116068184018f611548565b9050828103602084015261161a818e611548565b604084019c909c5250506060810198909852608088019690965260a087019490945291151560c086015260e08501526001600160a01b03166101008401526101208301526101409091015292915050565b6020808252602c908201527f5468652062757965722068617320616c7265616479207075726368617365642060408201526b3a343290383937b23ab1ba1760a11b606082015260800190565b60208082526024908201527f5468652062757965722068617320616c7265616479206265656e2072656a65636040820152633a32b21760e11b606082015260800190565b6000821982111561170e5761170e6117d8565b500190565b60008261173057634e487b7160e01b600052601260045260246000fd5b500490565b600081600019048311821515161561174f5761174f6117d8565b500290565b600082821015611766576117666117d8565b500390565b60008161177a5761177a6117d8565b506000190190565b600181811c9082168061179657607f821691505b602082108114156117b757634e487b7160e01b600052602260045260246000fd5b50919050565b60006000198214156117d1576117d16117d8565b5060010190565b634e487b7160e01b600052601160045260246000fd5b634e487b7160e01b600052603260045260246000fdfea2646970667358221220bf3bde1d98eeec1cac7a982bb705096ecf125044df5c6d528f7b159f692a430564736f6c63430008070033",
  "linkReferences": {},
  "deployedLinkReferences": {}
}