{
  "_format": "hh-sol-artifact-1",
  "contractName": "NFTMarketplace",
  "sourceName": "contracts/NFTMarketplace.sol",
  "abi": [
    {
      "inputs": [],
      "stateMutability": "nonpayable",
      "type": "constructor"
    },
    {
      "anonymous": false,
      "inputs": [
        {
          "indexed": true,
          "internalType": "address",
          "name": "owner",
          "type": "address"
        },
        {
          "indexed": true,
          "internalType": "address",
          "name": "approved",
          "type": "address"
        },
        {
          "indexed": true,
          "internalType": "uint256",
          "name": "tokenId",
          "type": "uint256"
        }
      ],
      "name": "Approval",
      "type": "event"
    },
    {
      "anonymous": false,
      "inputs": [
        {
          "indexed": true,
          "internalType": "address",
          "name": "owner",
          "type": "address"
        },
        {
          "indexed": true,
          "internalType": "address",
          "name": "operator",
          "type": "address"
        },
        {
          "indexed": false,
          "internalType": "bool",
          "name": "approved",
          "type": "bool"
        }
      ],
      "name": "ApprovalForAll",
      "type": "event"
    },
    {
      "anonymous": false,
      "inputs": [
        {
          "indexed": true,
          "internalType": "uint256",
          "name": "tokenId",
          "type": "uint256"
        },
        {
          "indexed": false,
          "internalType": "address",
          "name": "owner",
          "type": "address"
        },
        {
          "indexed": false,
          "internalType": "address",
          "name": "curWinner",
          "type": "address"
        },
        {
          "indexed": false,
          "internalType": "uint256",
          "name": "curHighestBid",
          "type": "uint256"
        },
        {
          "indexed": false,
          "internalType": "uint256",
          "name": "secondPrice",
          "type": "uint256"
        },
        {
          "indexed": false,
          "internalType": "uint256",
          "name": "endTime",
          "type": "uint256"
        },
        {
          "indexed": false,
          "internalType": "uint256",
          "name": "reserve",
          "type": "uint256"
        },
        {
          "indexed": false,
          "internalType": "bool",
          "name": "currentlyListed",
          "type": "bool"
        }
      ],
      "name": "TokenListedSuccess",
      "type": "event"
    },
    {
      "anonymous": false,
      "inputs": [
        {
          "indexed": true,
          "internalType": "address",
          "name": "from",
          "type": "address"
        },
        {
          "indexed": true,
          "internalType": "address",
          "name": "to",
          "type": "address"
        },
        {
          "indexed": true,
          "internalType": "uint256",
          "name": "tokenId",
          "type": "uint256"
        }
      ],
      "name": "Transfer",
      "type": "event"
    },
    {
      "inputs": [
        {
          "internalType": "address",
          "name": "to",
          "type": "address"
        },
        {
          "internalType": "uint256",
          "name": "tokenId",
          "type": "uint256"
        }
      ],
      "name": "approve",
      "outputs": [],
      "stateMutability": "nonpayable",
      "type": "function"
    },
    {
      "inputs": [
        {
          "internalType": "address",
          "name": "owner",
          "type": "address"
        }
      ],
      "name": "balanceOf",
      "outputs": [
        {
          "internalType": "uint256",
          "name": "",
          "type": "uint256"
        }
      ],
      "stateMutability": "view",
      "type": "function"
    },
    {
      "inputs": [
        {
          "internalType": "uint256",
          "name": "tokenId",
          "type": "uint256"
        }
      ],
      "name": "confirmRecieved",
      "outputs": [],
      "stateMutability": "payable",
      "type": "function"
    },
    {
      "inputs": [
        {
          "internalType": "string",
          "name": "tokenURI",
          "type": "string"
        },
        {
          "internalType": "uint256",
          "name": "reserve",
          "type": "uint256"
        },
        {
          "internalType": "uint256",
          "name": "time",
          "type": "uint256"
        }
      ],
      "name": "createToken",
      "outputs": [
        {
          "internalType": "uint256",
          "name": "",
          "type": "uint256"
        }
      ],
      "stateMutability": "payable",
      "type": "function"
    },
    {
      "inputs": [
        {
          "internalType": "uint256",
          "name": "tokenId",
          "type": "uint256"
        }
      ],
      "name": "endAuction",
      "outputs": [],
      "stateMutability": "payable",
      "type": "function"
    },
    {
      "inputs": [
        {
          "internalType": "uint256",
          "name": "tokenId",
          "type": "uint256"
        }
      ],
      "name": "failedAuction",
      "outputs": [],
      "stateMutability": "payable",
      "type": "function"
    },
    {
      "inputs": [],
      "name": "getAllNFTs",
      "outputs": [
        {
          "components": [
            {
              "internalType": "uint256",
              "name": "tokenId",
              "type": "uint256"
            },
            {
              "internalType": "address",
              "name": "owner",
              "type": "address"
            },
            {
              "internalType": "address",
              "name": "curWinner",
              "type": "address"
            },
            {
              "internalType": "uint256",
              "name": "curHighestBid",
              "type": "uint256"
            },
            {
              "internalType": "uint256",
              "name": "secondPrice",
              "type": "uint256"
            },
            {
              "internalType": "uint256",
              "name": "endTime",
              "type": "uint256"
            },
            {
              "internalType": "uint256",
              "name": "reserve",
              "type": "uint256"
            },
            {
              "internalType": "bool",
              "name": "currentlyListed",
              "type": "bool"
            }
          ],
          "internalType": "struct NFTMarketplace.ListedToken[]",
          "name": "",
          "type": "tuple[]"
        }
      ],
      "stateMutability": "view",
      "type": "function"
    },
    {
      "inputs": [
        {
          "internalType": "uint256",
          "name": "tokenId",
          "type": "uint256"
        }
      ],
      "name": "getApproved",
      "outputs": [
        {
          "internalType": "address",
          "name": "",
          "type": "address"
        }
      ],
      "stateMutability": "view",
      "type": "function"
    },
    {
      "inputs": [
        {
          "internalType": "uint256",
          "name": "tokenId",
          "type": "uint256"
        }
      ],
      "name": "getAuctionEndtime",
      "outputs": [
        {
          "internalType": "uint256",
          "name": "",
          "type": "uint256"
        }
      ],
      "stateMutability": "view",
      "type": "function"
    },
    {
      "inputs": [],
      "name": "getCurrentToken",
      "outputs": [
        {
          "internalType": "uint256",
          "name": "",
          "type": "uint256"
        }
      ],
      "stateMutability": "view",
      "type": "function"
    },
    {
      "inputs": [
        {
          "internalType": "uint256",
          "name": "tokenId",
          "type": "uint256"
        }
      ],
      "name": "getHighestBid",
      "outputs": [
        {
          "internalType": "uint256",
          "name": "",
          "type": "uint256"
        }
      ],
      "stateMutability": "view",
      "type": "function"
    },
    {
      "inputs": [],
      "name": "getLatestIdToListedToken",
      "outputs": [
        {
          "components": [
            {
              "internalType": "uint256",
              "name": "tokenId",
              "type": "uint256"
            },
            {
              "internalType": "address",
              "name": "owner",
              "type": "address"
            },
            {
              "internalType": "address",
              "name": "curWinner",
              "type": "address"
            },
            {
              "internalType": "uint256",
              "name": "curHighestBid",
              "type": "uint256"
            },
            {
              "internalType": "uint256",
              "name": "secondPrice",
              "type": "uint256"
            },
            {
              "internalType": "uint256",
              "name": "endTime",
              "type": "uint256"
            },
            {
              "internalType": "uint256",
              "name": "reserve",
              "type": "uint256"
            },
            {
              "internalType": "bool",
              "name": "currentlyListed",
              "type": "bool"
            }
          ],
          "internalType": "struct NFTMarketplace.ListedToken",
          "name": "",
          "type": "tuple"
        }
      ],
      "stateMutability": "view",
      "type": "function"
    },
    {
      "inputs": [],
      "name": "getListPrice",
      "outputs": [
        {
          "internalType": "uint256",
          "name": "",
          "type": "uint256"
        }
      ],
      "stateMutability": "view",
      "type": "function"
    },
    {
      "inputs": [
        {
          "internalType": "uint256",
          "name": "tokenId",
          "type": "uint256"
        }
      ],
      "name": "getListedTokenForId",
      "outputs": [
        {
          "components": [
            {
              "internalType": "uint256",
              "name": "tokenId",
              "type": "uint256"
            },
            {
              "internalType": "address",
              "name": "owner",
              "type": "address"
            },
            {
              "internalType": "address",
              "name": "curWinner",
              "type": "address"
            },
            {
              "internalType": "uint256",
              "name": "curHighestBid",
              "type": "uint256"
            },
            {
              "internalType": "uint256",
              "name": "secondPrice",
              "type": "uint256"
            },
            {
              "internalType": "uint256",
              "name": "endTime",
              "type": "uint256"
            },
            {
              "internalType": "uint256",
              "name": "reserve",
              "type": "uint256"
            },
            {
              "internalType": "bool",
              "name": "currentlyListed",
              "type": "bool"
            }
          ],
          "internalType": "struct NFTMarketplace.ListedToken",
          "name": "",
          "type": "tuple"
        }
      ],
      "stateMutability": "view",
      "type": "function"
    },
    {
      "inputs": [],
      "name": "getMyNFTs",
      "outputs": [
        {
          "components": [
            {
              "internalType": "uint256",
              "name": "tokenId",
              "type": "uint256"
            },
            {
              "internalType": "address",
              "name": "owner",
              "type": "address"
            },
            {
              "internalType": "address",
              "name": "curWinner",
              "type": "address"
            },
            {
              "internalType": "uint256",
              "name": "curHighestBid",
              "type": "uint256"
            },
            {
              "internalType": "uint256",
              "name": "secondPrice",
              "type": "uint256"
            },
            {
              "internalType": "uint256",
              "name": "endTime",
              "type": "uint256"
            },
            {
              "internalType": "uint256",
              "name": "reserve",
              "type": "uint256"
            },
            {
              "internalType": "bool",
              "name": "currentlyListed",
              "type": "bool"
            }
          ],
          "internalType": "struct NFTMarketplace.ListedToken[]",
          "name": "",
          "type": "tuple[]"
        }
      ],
      "stateMutability": "view",
      "type": "function"
    },
    {
      "inputs": [
        {
          "internalType": "address",
          "name": "owner",
          "type": "address"
        },
        {
          "internalType": "address",
          "name": "operator",
          "type": "address"
        }
      ],
      "name": "isApprovedForAll",
      "outputs": [
        {
          "internalType": "bool",
          "name": "",
          "type": "bool"
        }
      ],
      "stateMutability": "view",
      "type": "function"
    },
    {
      "inputs": [],
      "name": "name",
      "outputs": [
        {
          "internalType": "string",
          "name": "",
          "type": "string"
        }
      ],
      "stateMutability": "view",
      "type": "function"
    },
    {
      "inputs": [
        {
          "internalType": "uint256",
          "name": "tokenId",
          "type": "uint256"
        }
      ],
      "name": "noBuyer",
      "outputs": [],
      "stateMutability": "nonpayable",
      "type": "function"
    },
    {
      "inputs": [
        {
          "internalType": "uint256",
          "name": "tokenId",
          "type": "uint256"
        }
      ],
      "name": "ownerOf",
      "outputs": [
        {
          "internalType": "address",
          "name": "",
          "type": "address"
        }
      ],
      "stateMutability": "view",
      "type": "function"
    },
    {
      "inputs": [
        {
          "internalType": "uint256",
          "name": "tokenId",
          "type": "uint256"
        }
      ],
      "name": "placeBid",
      "outputs": [],
      "stateMutability": "payable",
      "type": "function"
    },
    {
      "inputs": [
        {
          "internalType": "address",
          "name": "from",
          "type": "address"
        },
        {
          "internalType": "address",
          "name": "to",
          "type": "address"
        },
        {
          "internalType": "uint256",
          "name": "tokenId",
          "type": "uint256"
        }
      ],
      "name": "safeTransferFrom",
      "outputs": [],
      "stateMutability": "nonpayable",
      "type": "function"
    },
    {
      "inputs": [
        {
          "internalType": "address",
          "name": "from",
          "type": "address"
        },
        {
          "internalType": "address",
          "name": "to",
          "type": "address"
        },
        {
          "internalType": "uint256",
          "name": "tokenId",
          "type": "uint256"
        },
        {
          "internalType": "bytes",
          "name": "data",
          "type": "bytes"
        }
      ],
      "name": "safeTransferFrom",
      "outputs": [],
      "stateMutability": "nonpayable",
      "type": "function"
    },
    {
      "inputs": [
        {
          "internalType": "address",
          "name": "operator",
          "type": "address"
        },
        {
          "internalType": "bool",
          "name": "approved",
          "type": "bool"
        }
      ],
      "name": "setApprovalForAll",
      "outputs": [],
      "stateMutability": "nonpayable",
      "type": "function"
    },
    {
      "inputs": [
        {
          "internalType": "bytes4",
          "name": "interfaceId",
          "type": "bytes4"
        }
      ],
      "name": "supportsInterface",
      "outputs": [
        {
          "internalType": "bool",
          "name": "",
          "type": "bool"
        }
      ],
      "stateMutability": "view",
      "type": "function"
    },
    {
      "inputs": [],
      "name": "symbol",
      "outputs": [
        {
          "internalType": "string",
          "name": "",
          "type": "string"
        }
      ],
      "stateMutability": "view",
      "type": "function"
    },
    {
      "inputs": [
        {
          "internalType": "uint256",
          "name": "tokenId",
          "type": "uint256"
        }
      ],
      "name": "tokenURI",
      "outputs": [
        {
          "internalType": "string",
          "name": "",
          "type": "string"
        }
      ],
      "stateMutability": "view",
      "type": "function"
    },
    {
      "inputs": [
        {
          "internalType": "address",
          "name": "from",
          "type": "address"
        },
        {
          "internalType": "address",
          "name": "to",
          "type": "address"
        },
        {
          "internalType": "uint256",
          "name": "tokenId",
          "type": "uint256"
        }
      ],
      "name": "transferFrom",
      "outputs": [],
      "stateMutability": "nonpayable",
      "type": "function"
    }
  ],
  "bytecode": "0x608060405266038d7ea4c68000600a553480156200001c57600080fd5b50604080518082018252600e81526d4e46544d61726b6574706c61636560901b6020808301918252835180850190945260048452634e46544d60e01b9084015281519192916200006f91600091620000a0565b50805162000085906001906020840190620000a0565b5050600980546001600160a01b031916331790555062000183565b828054620000ae9062000146565b90600052602060002090601f016020900481019282620000d257600085556200011d565b82601f10620000ed57805160ff19168380011785556200011d565b828001600101855582156200011d579182015b828111156200011d57825182559160200191906001019062000100565b506200012b9291506200012f565b5090565b5b808211156200012b576000815560010162000130565b600181811c908216806200015b57607f821691505b602082108114156200017d57634e487b7160e01b600052602260045260246000fd5b50919050565b612add80620001936000396000f3fe60806040526004361061019c5760003560e01c80638e264590116100ec578063bec2a7c51161008a578063d83ed88111610064578063d83ed8811461049a578063e0391b09146104ad578063e985e9c5146104c2578063ef2d1746146104e257600080fd5b8063bec2a7c514610452578063c87b56dd14610465578063d1a88ae51461048557600080fd5b80639979ef45116100c65780639979ef45146103ec578063a22cb465146103ff578063b88d4fde1461041f578063b9a2de3a1461043f57600080fd5b80638e2645901461037a5780638f288644146103a757806395d89b41146103d757600080fd5b8063308abfd3116101595780636352211e116101335780636352211e146103125780636520fc5d1461033257806368f1945f1461034557806370a082311461035a57600080fd5b8063308abfd31461029257806342842e0e146102d0578063629cb2e4146102f057600080fd5b806301ffc9a7146101a157806306fdde03146101d6578063081812fc146101f8578063095ea7b31461023057806323b872dd146102525780632a83add714610272575b600080fd5b3480156101ad57600080fd5b506101c16101bc36600461265d565b6104f7565b60405190151581526020015b60405180910390f35b3480156101e257600080fd5b506101eb610549565b6040516101cd9190612857565b34801561020457600080fd5b506102186102133660046126f9565b6105db565b6040516001600160a01b0390911681526020016101cd565b34801561023c57600080fd5b5061025061024b366004612633565b610602565b005b34801561025e57600080fd5b5061025061026d36600461253f565b61071d565b34801561027e57600080fd5b5061025061028d3660046126f9565b61074e565b34801561029e57600080fd5b506102c26102ad3660046126f9565b6000908152600b602052604090206005015490565b6040519081526020016101cd565b3480156102dc57600080fd5b506102506102eb36600461253f565b610834565b3480156102fc57600080fd5b5061030561084f565b6040516101cd9190612808565b34801561031e57600080fd5b5061021861032d3660046126f9565b610a2b565b6102506103403660046126f9565b610a8b565b34801561035157600080fd5b50600a546102c2565b34801561036657600080fd5b506102c26103753660046124f1565b610ba0565b34801561038657600080fd5b5061039a6103953660046126f9565b610c26565b6040516101cd919061294e565b3480156103b357600080fd5b506102c26103c23660046126f9565b6000908152600b602052604090206003015490565b3480156103e357600080fd5b506101eb610caf565b6102506103fa3660046126f9565b610cbe565b34801561040b57600080fd5b5061025061041a3660046125f7565b610e8f565b34801561042b57600080fd5b5061025061043a36600461257b565b610e9e565b61025061044d3660046126f9565b610ed0565b6102c2610460366004612697565b61115b565b34801561047157600080fd5b506101eb6104803660046126f9565b61125c565b34801561049157600080fd5b5061039a611365565b6102506104a83660046126f9565b6113fb565b3480156104b957600080fd5b506103056115e4565b3480156104ce57600080fd5b506101c16104dd36600461250c565b61172d565b3480156104ee57600080fd5b506102c261175b565b60006001600160e01b031982166380ac58cd60e01b148061052857506001600160e01b03198216635b5e139f60e01b145b8061054357506301ffc9a760e01b6001600160e01b03198316145b92915050565b606060008054610558906129f9565b80601f0160208091040260200160405190810160405280929190818152602001828054610584906129f9565b80156105d15780601f106105a6576101008083540402835291602001916105d1565b820191906000526020600020905b8154815290600101906020018083116105b457829003601f168201915b5050505050905090565b60006105e68261176b565b506000908152600460205260409020546001600160a01b031690565b600061060d82610a2b565b9050806001600160a01b0316836001600160a01b031614156106805760405162461bcd60e51b815260206004820152602160248201527f4552433732313a20617070726f76616c20746f2063757272656e74206f776e656044820152603960f91b60648201526084015b60405180910390fd5b336001600160a01b038216148061069c575061069c813361172d565b61070e5760405162461bcd60e51b815260206004820152603d60248201527f4552433732313a20617070726f76652063616c6c6572206973206e6f7420746f60448201527f6b656e206f776e6572206f7220617070726f76656420666f7220616c6c0000006064820152608401610677565b61071883836117ca565b505050565b6107273382611838565b6107435760405162461bcd60e51b81526004016106779061286a565b610718838383611896565b6000818152600b60205260409020600201546001600160a01b0316156107a95760405162461bcd60e51b815260206004820152601060248201526f5468657265204172652042757965727360801b6044820152606401610677565b6000818152600b602052604090206005015442116107fe5760405162461bcd60e51b815260206004820152601260248201527142696464696e67206973204f6e676f696e6760701b6044820152606401610677565b6000818152600b6020526040902060078101805460ff19169055600101546108319030906001600160a01b031683611896565b50565b61071883838360405180602001604052806000815250610e9e565b6060600061085c60075490565b905060008080805b848110156108bf5733600b600061087c84600161295d565b81526020810191909152604001600020600101546001600160a01b031614156108ad576108aa60018561295d565b93505b806108b781612a34565b915050610864565b5060008367ffffffffffffffff8111156108db576108db612a7b565b60405190808252806020026020018201604052801561091457816020015b61090161236d565b8152602001906001900390816108f95790505b50905060005b85811015610a215733600b600061093284600161295d565b81526020810191909152604001600020600101546001600160a01b03161415610a0f5761096081600161295d565b6000818152600b60209081526040918290208251610100810184528154815260018201546001600160a01b03908116938201939093526002820154909216928201929092526003820154606082015260048201546080820152600582015460a0820152600682015460c0820152600782015460ff16151560e0820152845192955090918490879081106109f5576109f5612a65565b6020908102919091010152610a0b60018661295d565b9450505b80610a1981612a34565b91505061091a565b5095945050505050565b6000818152600260205260408120546001600160a01b0316806105435760405162461bcd60e51b8152602060048201526018602482015277115490cdcc8c4e881a5b9d985b1a59081d1bdad95b88125160421b6044820152606401610677565b6000818152600b6020526040902060050154610aaa906201518061295d565b4211610b035760405162461bcd60e51b815260206004820152602260248201527f53656c6c6572204861766520323420486f75727320746f20656e64417563746960448201526137b760f11b6064820152608401610677565b6000818152600b6020526040812060028082015460018301546003909301546001600160a01b0391821694939091169291610b3e9190612997565b6000858152600b6020526040808220600701805460ff19169055519192506001600160a01b0385169183156108fc0291849190818181858888f19350505050158015610b8e573d6000803e3d6000fd5b50610b9a308386611896565b50505050565b60006001600160a01b038216610c0a5760405162461bcd60e51b815260206004820152602960248201527f4552433732313a2061646472657373207a65726f206973206e6f7420612076616044820152683634b21037bbb732b960b91b6064820152608401610677565b506001600160a01b031660009081526003602052604090205490565b610c2e61236d565b506000908152600b60209081526040918290208251610100810184528154815260018201546001600160a01b03908116938201939093526002820154909216928201929092526003820154606082015260048201546080820152600582015460a0820152600682015460c082015260079091015460ff16151560e082015290565b606060018054610558906129f9565b6000818152600b602052604090206007015460ff16610d115760405162461bcd60e51b815260206004820152600f60248201526e125d195b481b9bdd081b1a5cdd1959608a1b6044820152606401610677565b6000818152600b6020526040902060030154610d2e906002612997565b3411610d915760405162461bcd60e51b815260206004820152602c60248201527f4d757374204465706f7374204d6f7265205468616e2032782043757272656e7460448201526b08121a59da195cdd08109a5960a21b6064820152608401610677565b6000818152600b6020526040902060050154421115610de25760405162461bcd60e51b815260206004820152600d60248201526c105d58dd1a5bdb88115b991959609a1b6044820152606401610677565b6000818152600b602052604090206002808201546003909201546001600160a01b03909216916108fc91610e169190612997565b6040518115909202916000818181858888f19350505050158015610e3e573d6000803e3d6000fd5b506000818152600b602052604090206003810154600490910155610e63600234612975565b6000918252600b6020526040909120600381019190915560020180546001600160a01b03191633179055565b610e9a338383611a07565b5050565b610ea83383611838565b610ec45760405162461bcd60e51b81526004016106779061286a565b610b9a84848484611ad6565b6000818152600b60205260409020600101546001600160a01b03163314610f435760405162461bcd60e51b815260206004820152602160248201527f4f6e6c79204f776e65722063616e2043616c6c20546869732046756e6374696f6044820152603760f91b6064820152608401610677565b6000818152600b602052604090206007015460ff16610f965760405162461bcd60e51b815260206004820152600f60248201526e125d195b48139bdd08131a5cdd1959608a1b6044820152606401610677565b6000818152600b60205260409020600501544211610ff65760405162461bcd60e51b815260206004820152601860248201527f43616e6e6f7420456e642041756374696f6e204561726c7900000000000000006044820152606401610677565b6000818152600b602052604090206004015434146110565760405162461bcd60e51b815260206004820152601d60248201527f4d757374204465706f7369742074686520506179626c652050726963650000006044820152606401610677565b6000818152600b60205260409020600481015460078201805460ff191690556006909101548110156110fb576000828152600b60205260409020600101546110a99030906001600160a01b031684611896565b60405133903480156108fc02916000818181858888f193505050501580156110d5573d6000803e3d6000fd5b506000828152600b6020526040902060010180546001600160a01b031916331790555050565b6000828152600b60205260409020600201546111229030906001600160a01b031684611896565b6000828152600b602052604090206002810154600190910180546001600160a01b0319166001600160a01b039092169190911790555050565b600061116b600780546001019055565b600061117660075490565b90506111823382611b09565b61118c8186611b23565b6040805161010081018252828152336020808301918252600083850181815260608501828152608086018381526407915f3c8160a0880190815260c0880185815260e089018681528b8752600b909752989094209651875594516001870180546001600160a01b03199081166001600160a01b0393841617909155925160028801805490941691161790915551600385015591516004840155905160058301559151600682015590516007909101805460ff1916911515919091179055611254818585611bbd565b949350505050565b60606112678261176b565b60008281526006602052604081208054611280906129f9565b80601f01602080910402602001604051908101604052809291908181526020018280546112ac906129f9565b80156112f95780601f106112ce576101008083540402835291602001916112f9565b820191906000526020600020905b8154815290600101906020018083116112dc57829003601f168201915b50505050509050600061131760408051602081019091526000815290565b905080516000141561132a575092915050565b81511561135c57808260405160200161134492919061279c565b60405160208183030381529060405292505050919050565b61125484611e23565b61136d61236d565b600061137860075490565b6000908152600b60209081526040918290208251610100810184528154815260018201546001600160a01b03908116938201939093526002820154909216928201929092526003820154606082015260048201546080820152600582015460a0820152600682015460c082015260079091015460ff16151560e082015292915050565b6000818152600b60205260409020600201546001600160a01b0316331461147a5760405162461bcd60e51b815260206004820152602d60248201527f4f6e6c792041756374696f6e2057696e6e65722063616e20436f6e6669726d2060448201526c125d195b48149958da595d9959609a1b6064820152608401610677565b6114864261012c61295d565b6000828152600b6020526040902060050154106114d95760405162461bcd60e51b8152602060048201526011602482015270105d58dd1a5bdb881b9bdd08115b991959607a1b6044820152606401610677565b6114e7600880546001019055565b6000818152600b6020526040902060078101805460ff19169055600181015460028083015460048401546003909401546001600160a01b039384169493909116929184906108fc9061153a908590612997565b6040518115909202916000818181858888f19350505050158015611562573d6000803e3d6000fd5b506001600160a01b0383166108fc8361157c846002612997565b61158691906129b6565b6040518115909202916000818181858888f193505050501580156115ae573d6000803e3d6000fd5b5050506000928352600b602052604090922060010180546001600160a01b0319166001600160a01b039093169290921790915550565b606060006115f160075490565b905060008167ffffffffffffffff81111561160e5761160e612a7b565b60405190808252806020026020018201604052801561164757816020015b61163461236d565b81526020019060019003908161162c5790505b509050600080805b848110156117235761166281600161295d565b6000818152600b60209081526040918290208251610100810184528154815260018201546001600160a01b03908116938201939093526002820154909216928201929092526003820154606082015260048201546080820152600582015460a0820152600682015460c0820152600782015460ff16151560e0820152865192945090918690869081106116f7576116f7612a65565b602090810291909101015261170d60018561295d565b935050808061171b90612a34565b91505061164f565b5091949350505050565b6001600160a01b03918216600090815260056020908152604080832093909416825291909152205460ff1690565b600061176660075490565b905090565b6000818152600260205260409020546001600160a01b03166108315760405162461bcd60e51b8152602060048201526018602482015277115490cdcc8c4e881a5b9d985b1a59081d1bdad95b88125160421b6044820152606401610677565b600081815260046020526040902080546001600160a01b0319166001600160a01b03841690811790915581906117ff82610a2b565b6001600160a01b03167f8c5be1e5ebec7d5bd14f71427d1e84f3dd0314c0f7b2291e5b200ac8c7c3b92560405160405180910390a45050565b60008061184483610a2b565b9050806001600160a01b0316846001600160a01b0316148061186b575061186b818561172d565b806112545750836001600160a01b0316611884846105db565b6001600160a01b031614949350505050565b826001600160a01b03166118a982610a2b565b6001600160a01b0316146118cf5760405162461bcd60e51b815260040161067790612909565b6001600160a01b0382166119315760405162461bcd60e51b8152602060048201526024808201527f4552433732313a207472616e7366657220746f20746865207a65726f206164646044820152637265737360e01b6064820152608401610677565b61193e8383836001611e97565b826001600160a01b031661195182610a2b565b6001600160a01b0316146119775760405162461bcd60e51b815260040161067790612909565b600081815260046020908152604080832080546001600160a01b03199081169091556001600160a01b0387811680865260038552838620805460001901905590871680865283862080546001019055868652600290945282852080549092168417909155905184937fddf252ad1be2c89b69c2b068fc378daa952ba7f163c4a11628f55a4df523b3ef91a4505050565b816001600160a01b0316836001600160a01b03161415611a695760405162461bcd60e51b815260206004820152601960248201527f4552433732313a20617070726f766520746f2063616c6c6572000000000000006044820152606401610677565b6001600160a01b03838116600081815260056020908152604080832094871680845294825291829020805460ff191686151590811790915591519182527f17307eab39ab6107e8899845ad3d59bd9653f200f220920489ca2b5937696c31910160405180910390a3505050565b611ae1848484611896565b611aed84848484611f1f565b610b9a5760405162461bcd60e51b8152600401610677906128b7565b610e9a82826040518060200160405280600081525061202c565b6000828152600260205260409020546001600160a01b0316611b9e5760405162461bcd60e51b815260206004820152602e60248201527f45524337323155524953746f726167653a2055524920736574206f66206e6f6e60448201526d32bc34b9ba32b73a103a37b5b2b760911b6064820152608401610677565b60008281526006602090815260409091208251610718928401906123c6565b6000838152600b60205260409020600101546001600160a01b03163314611c265760405162461bcd60e51b815260206004820152601960248201527f4f6e6c79206f776e65722063616e206c69737420746f6b656e000000000000006044820152606401610677565b600a543414611c6f5760405162461bcd60e51b81526020600482015260156024820152744d7573742073656e64206c697374696e672066656560581b6044820152606401610677565b611c793084610602565b600954600a546040516001600160a01b039092169181156108fc0291906000818181858888f19350505050158015611cb5573d6000803e3d6000fd5b50604051806101000160405280848152602001306001600160a01b0316815260200160006001600160a01b0316815260200160008152602001600081526020018242611d01919061295d565b81526020808201859052600160409283018190526000878152600b8352839020845181559184015190820180546001600160a01b03199081166001600160a01b039384161790915592840151600283018054909416911617909155606082015160038201556080820151600482015560a0820151600582015560c0820151600682015560e0909101516007909101805460ff1916911515919091179055611da9333085611896565b827f882c6897c98e50b0a2ada5c2f69a5bfbfa12bcda3c1a534f2a54271170dba55d3060008080611dda874261295d565b604080516001600160a01b039687168152959094166020860152928401919091526060830152608082015260a08101859052600160c082015260e00160405180910390a2505050565b6060611e2e8261176b565b6000611e4560408051602081019091526000815290565b90506000815111611e655760405180602001604052806000815250611e90565b80611e6f8461205f565b604051602001611e8092919061279c565b6040516020818303038152906040525b9392505050565b6001811115610b9a576001600160a01b03841615611edd576001600160a01b03841660009081526003602052604081208054839290611ed79084906129b6565b90915550505b6001600160a01b03831615610b9a576001600160a01b03831660009081526003602052604081208054839290611f1490849061295d565b909155505050505050565b60006001600160a01b0384163b1561202157604051630a85bd0160e11b81526001600160a01b0385169063150b7a0290611f639033908990889088906004016127cb565b602060405180830381600087803b158015611f7d57600080fd5b505af1925050508015611fad575060408051601f3d908101601f19168201909252611faa9181019061267a565b60015b612007573d808015611fdb576040519150601f19603f3d011682016040523d82523d6000602084013e611fe0565b606091505b508051611fff5760405162461bcd60e51b8152600401610677906128b7565b805181602001fd5b6001600160e01b031916630a85bd0160e11b149050611254565b506001949350505050565b61203683836120fc565b6120436000848484611f1f565b6107185760405162461bcd60e51b8152600401610677906128b7565b6060600061206c83612295565b600101905060008167ffffffffffffffff81111561208c5761208c612a7b565b6040519080825280601f01601f1916602001820160405280156120b6576020820181803683370190505b5090508181016020015b600019016f181899199a1a9b1b9c1cb0b131b232b360811b600a86061a8153600a85049450846120ef576120f4565b6120c0565b509392505050565b6001600160a01b0382166121525760405162461bcd60e51b815260206004820181905260248201527f4552433732313a206d696e7420746f20746865207a65726f20616464726573736044820152606401610677565b6000818152600260205260409020546001600160a01b0316156121b75760405162461bcd60e51b815260206004820152601c60248201527f4552433732313a20746f6b656e20616c7265616479206d696e746564000000006044820152606401610677565b6121c5600083836001611e97565b6000818152600260205260409020546001600160a01b03161561222a5760405162461bcd60e51b815260206004820152601c60248201527f4552433732313a20746f6b656e20616c7265616479206d696e746564000000006044820152606401610677565b6001600160a01b038216600081815260036020908152604080832080546001019055848352600290915280822080546001600160a01b0319168417905551839291907fddf252ad1be2c89b69c2b068fc378daa952ba7f163c4a11628f55a4df523b3ef908290a45050565b60008072184f03e93ff9f4daa797ed6e38ed64bf6a1f0160401b83106122d45772184f03e93ff9f4daa797ed6e38ed64bf6a1f0160401b830492506040015b6d04ee2d6d415b85acef81000000008310612300576d04ee2d6d415b85acef8100000000830492506020015b662386f26fc10000831061231e57662386f26fc10000830492506010015b6305f5e1008310612336576305f5e100830492506008015b612710831061234a57612710830492506004015b6064831061235c576064830492506002015b600a83106105435760010192915050565b6040518061010001604052806000815260200160006001600160a01b0316815260200160006001600160a01b03168152602001600081526020016000815260200160008152602001600081526020016000151581525090565b8280546123d2906129f9565b90600052602060002090601f0160209004810192826123f4576000855561243a565b82601f1061240d57805160ff191683800117855561243a565b8280016001018555821561243a579182015b8281111561243a57825182559160200191906001019061241f565b5061244692915061244a565b5090565b5b80821115612446576000815560010161244b565b600067ffffffffffffffff8084111561247a5761247a612a7b565b604051601f8501601f19908116603f011681019082821181831017156124a2576124a2612a7b565b816040528093508581528686860111156124bb57600080fd5b858560208301376000602087830101525050509392505050565b80356001600160a01b03811681146124ec57600080fd5b919050565b60006020828403121561250357600080fd5b611e90826124d5565b6000806040838503121561251f57600080fd5b612528836124d5565b9150612536602084016124d5565b90509250929050565b60008060006060848603121561255457600080fd5b61255d846124d5565b925061256b602085016124d5565b9150604084013590509250925092565b6000806000806080858703121561259157600080fd5b61259a856124d5565b93506125a8602086016124d5565b925060408501359150606085013567ffffffffffffffff8111156125cb57600080fd5b8501601f810187136125dc57600080fd5b6125eb8782356020840161245f565b91505092959194509250565b6000806040838503121561260a57600080fd5b612613836124d5565b91506020830135801515811461262857600080fd5b809150509250929050565b6000806040838503121561264657600080fd5b61264f836124d5565b946020939093013593505050565b60006020828403121561266f57600080fd5b8135611e9081612a91565b60006020828403121561268c57600080fd5b8151611e9081612a91565b6000806000606084860312156126ac57600080fd5b833567ffffffffffffffff8111156126c357600080fd5b8401601f810186136126d457600080fd5b6126e38682356020840161245f565b9660208601359650604090950135949350505050565b60006020828403121561270b57600080fd5b5035919050565b6000815180845261272a8160208601602086016129cd565b601f01601f19169290920160200192915050565b80518252602081015160018060a01b0380821660208501528060408401511660408501525050606081015160608301526080810151608083015260a081015160a083015260c081015160c083015260e0810151151560e08301525050565b600083516127ae8184602088016129cd565b8351908301906127c28183602088016129cd565b01949350505050565b6001600160a01b03858116825284166020820152604081018390526080606082018190526000906127fe90830184612712565b9695505050505050565b6020808252825182820181905260009190848201906040850190845b8181101561284b5761283783855161273e565b928401926101009290920191600101612824565b50909695505050505050565b602081526000611e906020830184612712565b6020808252602d908201527f4552433732313a2063616c6c6572206973206e6f7420746f6b656e206f776e6560408201526c1c881bdc88185c1c1c9bdd9959609a1b606082015260800190565b60208082526032908201527f4552433732313a207472616e7366657220746f206e6f6e20455243373231526560408201527131b2b4bb32b91034b6b83632b6b2b73a32b960711b606082015260800190565b60208082526025908201527f4552433732313a207472616e736665722066726f6d20696e636f72726563742060408201526437bbb732b960d91b606082015260800190565b6101008101610543828461273e565b6000821982111561297057612970612a4f565b500190565b60008261299257634e487b7160e01b600052601260045260246000fd5b500490565b60008160001904831182151516156129b1576129b1612a4f565b500290565b6000828210156129c8576129c8612a4f565b500390565b60005b838110156129e85781810151838201526020016129d0565b83811115610b9a5750506000910152565b600181811c90821680612a0d57607f821691505b60208210811415612a2e57634e487b7160e01b600052602260045260246000fd5b50919050565b6000600019821415612a4857612a48612a4f565b5060010190565b634e487b7160e01b600052601160045260246000fd5b634e487b7160e01b600052603260045260246000fd5b634e487b7160e01b600052604160045260246000fd5b6001600160e01b03198116811461083157600080fdfea2646970667358221220b6e58c5e36650cadf32cb2d6e0aaf3639f1cbec2a02db869da082df91ead6ff264736f6c63430008070033",
  "linkReferences": {},
  "deployedLinkReferences": {}
}