{
  "_format": "hh-sol-artifact-1",
  "contractName": "SecondPriceAuction",
  "sourceName": "contracts/SecondPriceAuction.sol",
  "abi": [
    {
      "inputs": [],
      "stateMutability": "nonpayable",
      "type": "constructor"
    },
    {
      "anonymous": false,
      "inputs": [
        {
          "indexed": true,
          "internalType": "address",
          "name": "owner",
          "type": "address"
        },
        {
          "indexed": true,
          "internalType": "address",
          "name": "approved",
          "type": "address"
        },
        {
          "indexed": true,
          "internalType": "uint256",
          "name": "tokenId",
          "type": "uint256"
        }
      ],
      "name": "Approval",
      "type": "event"
    },
    {
      "anonymous": false,
      "inputs": [
        {
          "indexed": true,
          "internalType": "address",
          "name": "owner",
          "type": "address"
        },
        {
          "indexed": true,
          "internalType": "address",
          "name": "operator",
          "type": "address"
        },
        {
          "indexed": false,
          "internalType": "bool",
          "name": "approved",
          "type": "bool"
        }
      ],
      "name": "ApprovalForAll",
      "type": "event"
    },
    {
      "anonymous": false,
      "inputs": [
        {
          "indexed": true,
          "internalType": "address",
          "name": "from",
          "type": "address"
        },
        {
          "indexed": true,
          "internalType": "address",
          "name": "to",
          "type": "address"
        },
        {
          "indexed": true,
          "internalType": "uint256",
          "name": "tokenId",
          "type": "uint256"
        }
      ],
      "name": "Transfer",
      "type": "event"
    },
    {
      "inputs": [
        {
          "internalType": "address",
          "name": "to",
          "type": "address"
        },
        {
          "internalType": "uint256",
          "name": "tokenId",
          "type": "uint256"
        }
      ],
      "name": "approve",
      "outputs": [],
      "stateMutability": "nonpayable",
      "type": "function"
    },
    {
      "inputs": [],
      "name": "auction_state",
      "outputs": [
        {
          "internalType": "enum SecondPriceAuction.AuctionState",
          "name": "",
          "type": "uint8"
        }
      ],
      "stateMutability": "view",
      "type": "function"
    },
    {
      "inputs": [
        {
          "internalType": "address",
          "name": "owner",
          "type": "address"
        }
      ],
      "name": "balanceOf",
      "outputs": [
        {
          "internalType": "uint256",
          "name": "",
          "type": "uint256"
        }
      ],
      "stateMutability": "view",
      "type": "function"
    },
    {
      "inputs": [],
      "name": "confirmRecieved",
      "outputs": [],
      "stateMutability": "nonpayable",
      "type": "function"
    },
    {
      "inputs": [],
      "name": "curHighestBid",
      "outputs": [
        {
          "internalType": "uint256",
          "name": "",
          "type": "uint256"
        }
      ],
      "stateMutability": "view",
      "type": "function"
    },
    {
      "inputs": [],
      "name": "curHighestBidder",
      "outputs": [
        {
          "internalType": "address payable",
          "name": "",
          "type": "address"
        }
      ],
      "stateMutability": "view",
      "type": "function"
    },
    {
      "inputs": [],
      "name": "endAuction",
      "outputs": [],
      "stateMutability": "payable",
      "type": "function"
    },
    {
      "inputs": [],
      "name": "endTime",
      "outputs": [
        {
          "internalType": "uint256",
          "name": "",
          "type": "uint256"
        }
      ],
      "stateMutability": "view",
      "type": "function"
    },
    {
      "inputs": [],
      "name": "failedAuction",
      "outputs": [],
      "stateMutability": "nonpayable",
      "type": "function"
    },
    {
      "inputs": [
        {
          "internalType": "uint256",
          "name": "tokenId",
          "type": "uint256"
        }
      ],
      "name": "getApproved",
      "outputs": [
        {
          "internalType": "address",
          "name": "",
          "type": "address"
        }
      ],
      "stateMutability": "view",
      "type": "function"
    },
    {
      "inputs": [],
      "name": "getHighestBid",
      "outputs": [
        {
          "internalType": "uint256",
          "name": "",
          "type": "uint256"
        }
      ],
      "stateMutability": "view",
      "type": "function"
    },
    {
      "inputs": [
        {
          "internalType": "address",
          "name": "owner",
          "type": "address"
        },
        {
          "internalType": "address",
          "name": "operator",
          "type": "address"
        }
      ],
      "name": "isApprovedForAll",
      "outputs": [
        {
          "internalType": "bool",
          "name": "",
          "type": "bool"
        }
      ],
      "stateMutability": "view",
      "type": "function"
    },
    {
      "inputs": [],
      "name": "name",
      "outputs": [
        {
          "internalType": "string",
          "name": "",
          "type": "string"
        }
      ],
      "stateMutability": "view",
      "type": "function"
    },
    {
      "inputs": [],
      "name": "noBuyer",
      "outputs": [],
      "stateMutability": "nonpayable",
      "type": "function"
    },
    {
      "inputs": [
        {
          "internalType": "uint256",
          "name": "tokenId",
          "type": "uint256"
        }
      ],
      "name": "ownerOf",
      "outputs": [
        {
          "internalType": "address",
          "name": "",
          "type": "address"
        }
      ],
      "stateMutability": "view",
      "type": "function"
    },
    {
      "inputs": [],
      "name": "placeBid",
      "outputs": [],
      "stateMutability": "payable",
      "type": "function"
    },
    {
      "inputs": [
        {
          "internalType": "address",
          "name": "from",
          "type": "address"
        },
        {
          "internalType": "address",
          "name": "to",
          "type": "address"
        },
        {
          "internalType": "uint256",
          "name": "tokenId",
          "type": "uint256"
        }
      ],
      "name": "safeTransferFrom",
      "outputs": [],
      "stateMutability": "nonpayable",
      "type": "function"
    },
    {
      "inputs": [
        {
          "internalType": "address",
          "name": "from",
          "type": "address"
        },
        {
          "internalType": "address",
          "name": "to",
          "type": "address"
        },
        {
          "internalType": "uint256",
          "name": "tokenId",
          "type": "uint256"
        },
        {
          "internalType": "bytes",
          "name": "data",
          "type": "bytes"
        }
      ],
      "name": "safeTransferFrom",
      "outputs": [],
      "stateMutability": "nonpayable",
      "type": "function"
    },
    {
      "inputs": [],
      "name": "secondPrice",
      "outputs": [
        {
          "internalType": "uint256",
          "name": "",
          "type": "uint256"
        }
      ],
      "stateMutability": "view",
      "type": "function"
    },
    {
      "inputs": [],
      "name": "seller",
      "outputs": [
        {
          "internalType": "address payable",
          "name": "",
          "type": "address"
        }
      ],
      "stateMutability": "view",
      "type": "function"
    },
    {
      "inputs": [
        {
          "internalType": "address",
          "name": "operator",
          "type": "address"
        },
        {
          "internalType": "bool",
          "name": "approved",
          "type": "bool"
        }
      ],
      "name": "setApprovalForAll",
      "outputs": [],
      "stateMutability": "nonpayable",
      "type": "function"
    },
    {
      "inputs": [
        {
          "internalType": "uint256",
          "name": "_time",
          "type": "uint256"
        },
        {
          "internalType": "uint256",
          "name": "_reserve",
          "type": "uint256"
        }
      ],
      "name": "startAuction",
      "outputs": [],
      "stateMutability": "payable",
      "type": "function"
    },
    {
      "inputs": [
        {
          "internalType": "bytes4",
          "name": "interfaceId",
          "type": "bytes4"
        }
      ],
      "name": "supportsInterface",
      "outputs": [
        {
          "internalType": "bool",
          "name": "",
          "type": "bool"
        }
      ],
      "stateMutability": "view",
      "type": "function"
    },
    {
      "inputs": [],
      "name": "symbol",
      "outputs": [
        {
          "internalType": "string",
          "name": "",
          "type": "string"
        }
      ],
      "stateMutability": "view",
      "type": "function"
    },
    {
      "inputs": [
        {
          "internalType": "uint256",
          "name": "tokenId",
          "type": "uint256"
        }
      ],
      "name": "tokenURI",
      "outputs": [
        {
          "internalType": "string",
          "name": "",
          "type": "string"
        }
      ],
      "stateMutability": "view",
      "type": "function"
    },
    {
      "inputs": [
        {
          "internalType": "address",
          "name": "from",
          "type": "address"
        },
        {
          "internalType": "address",
          "name": "to",
          "type": "address"
        },
        {
          "internalType": "uint256",
          "name": "tokenId",
          "type": "uint256"
        }
      ],
      "name": "transferFrom",
      "outputs": [],
      "stateMutability": "nonpayable",
      "type": "function"
    },
    {
      "inputs": [],
      "name": "withholding",
      "outputs": [
        {
          "internalType": "uint256",
          "name": "",
          "type": "uint256"
        }
      ],
      "stateMutability": "view",
      "type": "function"
    }
  ],
  "bytecode": "0x60806040523480156200001157600080fd5b50604080518082018252600381526253504160e81b6020808301918252835180850190945260048452635350414d60e01b908401528151919291620000599160009162000095565b5080516200006f90600190602084019062000095565b5050600d805460ff60a01b1916600160a01b1790555060006007819055600a5562000178565b828054620000a3906200013b565b90600052602060002090601f016020900481019282620000c7576000855562000112565b82601f10620000e257805160ff191683800117855562000112565b8280016001018555821562000112579182015b8281111562000112578251825591602001919060010190620000f5565b506200012092915062000124565b5090565b5b8082111562000120576000815560010162000125565b600181811c908216806200015057607f821691505b602082108114156200017257634e487b7160e01b600052602260045260246000fd5b50919050565b611cc680620001886000396000f3fe60806040526004361061019c5760003560e01c80636e1049fc116100ec578063b88d4fde1161008a578063e985e9c511610064578063e985e9c514610454578063ecfc7ecc1461049d578063f9688bc1146104a5578063fe67a54b146104d357600080fd5b8063b88d4fde146103fe578063c87b56dd1461041e578063d1e61e241461043e57600080fd5b806392c826fe116100c657806392c826fe1461039f57806395d89b41146103b4578063a22cb465146103c9578063b160059c146103e957600080fd5b80636e1049fc1461035357806370a08231146103695780638297d6651461038957600080fd5b806323b872dd1161015957806342842e0e1161013357806342842e0e146102eb5780634979440a1461030b5780634fee13fc146103205780636352211e1461033357600080fd5b806323b872dd146102925780633197cbb6146102b257806334f013b1146102d657600080fd5b806301628121146101a157806301ffc9a7146101de57806306fdde031461020e578063081812fc1461023057806308551a5314610250578063095ea7b314610270575b600080fd5b3480156101ad57600080fd5b50600d546101c1906001600160a01b031681565b6040516001600160a01b0390911681526020015b60405180910390f35b3480156101ea57600080fd5b506101fe6101f9366004611935565b6104db565b60405190151581526020016101d5565b34801561021a57600080fd5b5061022361052d565b6040516101d59190611a6a565b34801561023c57600080fd5b506101c161024b36600461196f565b6105bf565b34801561025c57600080fd5b50600c546101c1906001600160a01b031681565b34801561027c57600080fd5b5061029061028b36600461190b565b6105e6565b005b34801561029e57600080fd5b506102906102ad3660046117b7565b610701565b3480156102be57600080fd5b506102c860095481565b6040519081526020016101d5565b3480156102e257600080fd5b50610290610732565b3480156102f757600080fd5b506102906103063660046117b7565b610865565b34801561031757600080fd5b506007546102c8565b61029061032e366004611988565b610880565b34801561033f57600080fd5b506101c161034e36600461196f565b61096c565b34801561035f57600080fd5b506102c860075481565b34801561037557600080fd5b506102c8610384366004611769565b6109cc565b34801561039557600080fd5b506102c8600b5481565b3480156103ab57600080fd5b50610290610a52565b3480156103c057600080fd5b50610223610b34565b3480156103d557600080fd5b506102906103e43660046118cf565b610b43565b3480156103f557600080fd5b50610290610b52565b34801561040a57600080fd5b506102906104193660046117f3565b610c0b565b34801561042a57600080fd5b5061022361043936600461196f565b610c43565b34801561044a57600080fd5b506102c860085481565b34801561046057600080fd5b506101fe61046f366004611784565b6001600160a01b03918216600090815260056020908152604080832093909416825291909152205460ff1690565b610290610d54565b3480156104b157600080fd5b50600d546104c690600160a01b900460ff1681565b6040516101d59190611a42565b610290610ed9565b60006001600160e01b031982166380ac58cd60e01b148061050c57506001600160e01b03198216635b5e139f60e01b145b8061052757506301ffc9a760e01b6001600160e01b03198316145b92915050565b60606000805461053c90611bfd565b80601f016020809104026020016040519081016040528092919081815260200182805461056890611bfd565b80156105b55780601f1061058a576101008083540402835291602001916105b5565b820191906000526020600020905b81548152906001019060200180831161059857829003601f168201915b5050505050905090565b60006105ca8261100e565b506000908152600460205260409020546001600160a01b031690565b60006105f18261096c565b9050806001600160a01b0316836001600160a01b031614156106645760405162461bcd60e51b815260206004820152602160248201527f4552433732313a20617070726f76616c20746f2063757272656e74206f776e656044820152603960f91b60648201526084015b60405180910390fd5b336001600160a01b03821614806106805750610680813361046f565b6106f25760405162461bcd60e51b815260206004820152603d60248201527f4552433732313a20617070726f76652063616c6c6572206973206e6f7420746f60448201527f6b656e206f776e6572206f7220617070726f76656420666f7220616c6c000000606482015260840161065b565b6106fc8383611070565b505050565b61070b33826110de565b6107275760405162461bcd60e51b815260040161065b90611a7d565b6106fc83838361115c565b600d546001600160a01b0316331461074957600080fd5b6002600d54600160a01b900460ff16600281111561076957610769611c4e565b146107b65760405162461bcd60e51b815260206004820152601b60248201527f41756374696f6e206e6f7420696e205061796f75742053746167650000000000604482015260640161065b565b600c54600b546008546001600160a01b03909216916108fc91906107db906002611b9b565b6107e59190611b61565b6040518115909202916000818181858888f1935050505015801561080d573d6000803e3d6000fd5b50600d546040516001600160a01b03909116904780156108fc02916000818181858888f19350505050158015610847573d6000803e3d6000fd5b50600d80546001919060ff60a01b1916600160a01b835b0217905550565b6106fc83838360405180602001604052806000815250610c0b565b6001600d54600160a01b900460ff1660028111156108a0576108a0611c4e565b146108e65760405162461bcd60e51b815260206004820152601660248201527541756374696f6e20416c72656164792041637469766560501b604482015260640161065b565b600034116109365760405162461bcd60e51b815260206004820152601860248201527f4d757374204465706f7369742057697468686f6c64696e670000000000000000604482015260640161065b565b600d805460ff60a01b1916905561094d8242611b61565b60095534600b55600c80546001600160a01b03191633179055600a5550565b6000818152600260205260408120546001600160a01b0316806105275760405162461bcd60e51b8152602060048201526018602482015277115490cdcc8c4e881a5b9d985b1a59081d1bdad95b88125160421b604482015260640161065b565b60006001600160a01b038216610a365760405162461bcd60e51b815260206004820152602960248201527f4552433732313a2061646472657373207a65726f206973206e6f7420612076616044820152683634b21037bbb732b960b91b606482015260840161065b565b506001600160a01b031660009081526003602052604090205490565b600c546001600160a01b03163314610a6957600080fd5b600d546001600160a01b031615610ab55760405162461bcd60e51b815260206004820152601060248201526f5468657265204172652042757965727360801b604482015260640161065b565b6009544211610afb5760405162461bcd60e51b815260206004820152601260248201527142696464696e67206973204f6e676f696e6760701b604482015260640161065b565b600c546040516001600160a01b03909116904780156108fc02916000818181858888f19350505050158015610847573d6000803e3d6000fd5b60606001805461053c90611bfd565b610b4e3383836112cd565b5050565b600d546001600160a01b03163314610b6957600080fd5b600954610b799062015180611b61565b4211610bd25760405162461bcd60e51b815260206004820152602260248201527f53656c6c6572204861766520323420486f75727320746f20656e64417563746960448201526137b760f11b606482015260840161065b565b600d546040516001600160a01b03909116904780156108fc02916000818181858888f19350505050158015610847573d6000803e3d6000fd5b610c1533836110de565b610c315760405162461bcd60e51b815260040161065b90611a7d565b610c3d8484848461139c565b50505050565b6060610c4e8261100e565b60008281526006602052604081208054610c6790611bfd565b80601f0160208091040260200160405190810160405280929190818152602001828054610c9390611bfd565b8015610ce05780601f10610cb557610100808354040283529160200191610ce0565b820191906000526020600020905b815481529060010190602001808311610cc357829003601f168201915b505050505090506000610cfe60408051602081019091526000815290565b9050805160001415610d11575092915050565b815115610d43578082604051602001610d2b9291906119d6565b60405160208183030381529060405292505050919050565b610d4c846113cf565b949350505050565b6000600d54600160a01b900460ff166002811115610d7457610d74611c4e565b14610db45760405162461bcd60e51b815260206004820152601060248201526f41756374696f6e20496e61637469766560801b604482015260640161065b565b600754610dc2906002611b9b565b3411610e255760405162461bcd60e51b815260206004820152602c60248201527f4d757374204465706f7374204d6f7265205468616e2032782043757272656e7460448201526b08121a59da195cdd08109a5960a21b606482015260840161065b565b600954421115610e675760405162461bcd60e51b815260206004820152600d60248201526c105d58dd1a5bdb88115b991959609a1b604482015260640161065b565b600d546007546001600160a01b03909116906108fc90610e88906002611b9b565b6040518115909202916000818181858888f19350505050158015610eb0573d6000803e3d6000fd5b50600754600855610ec2600234611b79565b600755600d80546001600160a01b03191633179055565b600c546001600160a01b03163314610ef057600080fd5b6000600d54600160a01b900460ff166002811115610f1057610f10611c4e565b14610f525760405162461bcd60e51b815260206004820152601260248201527127379027b733b7b4b7339020bab1ba34b7b760711b604482015260640161065b565b6009544211610fa35760405162461bcd60e51b815260206004820152601860248201527f43616e6e6f7420456e642041756374696f6e204561726c790000000000000000604482015260640161065b565b6008543414610ff45760405162461bcd60e51b815260206004820152601d60248201527f4d757374204465706f7369742074686520506179626c65205072696365000000604482015260640161065b565b600d80546002919060ff60a01b1916600160a01b8361085e565b6000818152600260205260409020546001600160a01b031661106d5760405162461bcd60e51b8152602060048201526018602482015277115490cdcc8c4e881a5b9d985b1a59081d1bdad95b88125160421b604482015260640161065b565b50565b600081815260046020526040902080546001600160a01b0319166001600160a01b03841690811790915581906110a58261096c565b6001600160a01b03167f8c5be1e5ebec7d5bd14f71427d1e84f3dd0314c0f7b2291e5b200ac8c7c3b92560405160405180910390a45050565b6000806110ea8361096c565b9050806001600160a01b0316846001600160a01b0316148061113157506001600160a01b0380821660009081526005602090815260408083209388168352929052205460ff165b80610d4c5750836001600160a01b031661114a846105bf565b6001600160a01b031614949350505050565b826001600160a01b031661116f8261096c565b6001600160a01b0316146111955760405162461bcd60e51b815260040161065b90611b1c565b6001600160a01b0382166111f75760405162461bcd60e51b8152602060048201526024808201527f4552433732313a207472616e7366657220746f20746865207a65726f206164646044820152637265737360e01b606482015260840161065b565b6112048383836001611443565b826001600160a01b03166112178261096c565b6001600160a01b03161461123d5760405162461bcd60e51b815260040161065b90611b1c565b600081815260046020908152604080832080546001600160a01b03199081169091556001600160a01b0387811680865260038552838620805460001901905590871680865283862080546001019055868652600290945282852080549092168417909155905184937fddf252ad1be2c89b69c2b068fc378daa952ba7f163c4a11628f55a4df523b3ef91a4505050565b816001600160a01b0316836001600160a01b0316141561132f5760405162461bcd60e51b815260206004820152601960248201527f4552433732313a20617070726f766520746f2063616c6c657200000000000000604482015260640161065b565b6001600160a01b03838116600081815260056020908152604080832094871680845294825291829020805460ff191686151590811790915591519182527f17307eab39ab6107e8899845ad3d59bd9653f200f220920489ca2b5937696c31910160405180910390a3505050565b6113a784848461115c565b6113b3848484846114cb565b610c3d5760405162461bcd60e51b815260040161065b90611aca565b60606113da8261100e565b60006113f160408051602081019091526000815290565b90506000815111611411576040518060200160405280600081525061143c565b8061141b846115d8565b60405160200161142c9291906119d6565b6040516020818303038152906040525b9392505050565b6001811115610c3d576001600160a01b03841615611489576001600160a01b03841660009081526003602052604081208054839290611483908490611bba565b90915550505b6001600160a01b03831615610c3d576001600160a01b038316600090815260036020526040812080548392906114c0908490611b61565b909155505050505050565b60006001600160a01b0384163b156115cd57604051630a85bd0160e11b81526001600160a01b0385169063150b7a029061150f903390899088908890600401611a05565b602060405180830381600087803b15801561152957600080fd5b505af1925050508015611559575060408051601f3d908101601f1916820190925261155691810190611952565b60015b6115b3573d808015611587576040519150601f19603f3d011682016040523d82523d6000602084013e61158c565b606091505b5080516115ab5760405162461bcd60e51b815260040161065b90611aca565b805181602001fd5b6001600160e01b031916630a85bd0160e11b149050610d4c565b506001949350505050565b606060006115e583611675565b600101905060008167ffffffffffffffff81111561160557611605611c64565b6040519080825280601f01601f19166020018201604052801561162f576020820181803683370190505b5090508181016020015b600019016f181899199a1a9b1b9c1cb0b131b232b360811b600a86061a8153600a85049450846116685761166d565b611639565b509392505050565b60008072184f03e93ff9f4daa797ed6e38ed64bf6a1f0160401b83106116b45772184f03e93ff9f4daa797ed6e38ed64bf6a1f0160401b830492506040015b6d04ee2d6d415b85acef810000000083106116e0576d04ee2d6d415b85acef8100000000830492506020015b662386f26fc1000083106116fe57662386f26fc10000830492506010015b6305f5e1008310611716576305f5e100830492506008015b612710831061172a57612710830492506004015b6064831061173c576064830492506002015b600a83106105275760010192915050565b80356001600160a01b038116811461176457600080fd5b919050565b60006020828403121561177b57600080fd5b61143c8261174d565b6000806040838503121561179757600080fd5b6117a08361174d565b91506117ae6020840161174d565b90509250929050565b6000806000606084860312156117cc57600080fd5b6117d58461174d565b92506117e36020850161174d565b9150604084013590509250925092565b6000806000806080858703121561180957600080fd5b6118128561174d565b93506118206020860161174d565b925060408501359150606085013567ffffffffffffffff8082111561184457600080fd5b818701915087601f83011261185857600080fd5b81358181111561186a5761186a611c64565b604051601f8201601f19908116603f0116810190838211818310171561189257611892611c64565b816040528281528a60208487010111156118ab57600080fd5b82602086016020830137600060208483010152809550505050505092959194509250565b600080604083850312156118e257600080fd5b6118eb8361174d565b91506020830135801515811461190057600080fd5b809150509250929050565b6000806040838503121561191e57600080fd5b6119278361174d565b946020939093013593505050565b60006020828403121561194757600080fd5b813561143c81611c7a565b60006020828403121561196457600080fd5b815161143c81611c7a565b60006020828403121561198157600080fd5b5035919050565b6000806040838503121561199b57600080fd5b50508035926020909101359150565b600081518084526119c2816020860160208601611bd1565b601f01601f19169290920160200192915050565b600083516119e8818460208801611bd1565b8351908301906119fc818360208801611bd1565b01949350505050565b6001600160a01b0385811682528416602082015260408101839052608060608201819052600090611a38908301846119aa565b9695505050505050565b6020810160038310611a6457634e487b7160e01b600052602160045260246000fd5b91905290565b60208152600061143c60208301846119aa565b6020808252602d908201527f4552433732313a2063616c6c6572206973206e6f7420746f6b656e206f776e6560408201526c1c881bdc88185c1c1c9bdd9959609a1b606082015260800190565b60208082526032908201527f4552433732313a207472616e7366657220746f206e6f6e20455243373231526560408201527131b2b4bb32b91034b6b83632b6b2b73a32b960711b606082015260800190565b60208082526025908201527f4552433732313a207472616e736665722066726f6d20696e636f72726563742060408201526437bbb732b960d91b606082015260800190565b60008219821115611b7457611b74611c38565b500190565b600082611b9657634e487b7160e01b600052601260045260246000fd5b500490565b6000816000190483118215151615611bb557611bb5611c38565b500290565b600082821015611bcc57611bcc611c38565b500390565b60005b83811015611bec578181015183820152602001611bd4565b83811115610c3d5750506000910152565b600181811c90821680611c1157607f821691505b60208210811415611c3257634e487b7160e01b600052602260045260246000fd5b50919050565b634e487b7160e01b600052601160045260246000fd5b634e487b7160e01b600052602160045260246000fd5b634e487b7160e01b600052604160045260246000fd5b6001600160e01b03198116811461106d57600080fdfea2646970667358221220309a677d7d9c6b7311b5248e76af282f17150155eada73df6242c79a2176f17564736f6c63430008070033",
  "linkReferences": {},
  "deployedLinkReferences": {}
}